{
  "contractName": "CryptoClans",
  "abi": [
    {
      "inputs": [],
      "stateMutability": "nonpayable",
      "type": "constructor"
    },
    {
      "anonymous": false,
      "inputs": [
        {
          "indexed": true,
          "internalType": "address",
          "name": "owner",
          "type": "address"
        },
        {
          "indexed": true,
          "internalType": "address",
          "name": "approved",
          "type": "address"
        },
        {
          "indexed": true,
          "internalType": "uint256",
          "name": "tokenId",
          "type": "uint256"
        }
      ],
      "name": "Approval",
      "type": "event"
    },
    {
      "anonymous": false,
      "inputs": [
        {
          "indexed": true,
          "internalType": "address",
          "name": "owner",
          "type": "address"
        },
        {
          "indexed": true,
          "internalType": "address",
          "name": "operator",
          "type": "address"
        },
        {
          "indexed": false,
          "internalType": "bool",
          "name": "approved",
          "type": "bool"
        }
      ],
      "name": "ApprovalForAll",
      "type": "event"
    },
    {
      "anonymous": false,
      "inputs": [
        {
          "indexed": true,
          "internalType": "address",
          "name": "from",
          "type": "address"
        },
        {
          "indexed": true,
          "internalType": "address",
          "name": "to",
          "type": "address"
        },
        {
          "indexed": true,
          "internalType": "uint256",
          "name": "tokenId",
          "type": "uint256"
        }
      ],
      "name": "Transfer",
      "type": "event"
    },
    {
      "inputs": [
        {
          "internalType": "uint256",
          "name": "",
          "type": "uint256"
        }
      ],
      "name": "allCryptoClans",
      "outputs": [
        {
          "internalType": "uint256",
          "name": "tokenId",
          "type": "uint256"
        },
        {
          "internalType": "string",
          "name": "tokenName",
          "type": "string"
        },
        {
          "internalType": "string",
          "name": "tokenURI",
          "type": "string"
        },
        {
          "internalType": "address payable",
          "name": "mintedBy",
          "type": "address"
        },
        {
          "internalType": "address payable",
          "name": "currentOwner",
          "type": "address"
        },
        {
          "internalType": "address payable",
          "name": "previousOwner",
          "type": "address"
        },
        {
          "internalType": "uint256",
          "name": "price",
          "type": "uint256"
        },
        {
          "internalType": "uint256",
          "name": "numberOfTransfers",
          "type": "uint256"
        },
        {
          "internalType": "bool",
          "name": "forSale",
          "type": "bool"
        }
      ],
      "stateMutability": "view",
      "type": "function",
      "constant": true
    },
    {
      "inputs": [
        {
          "internalType": "address",
          "name": "to",
          "type": "address"
        },
        {
          "internalType": "uint256",
          "name": "tokenId",
          "type": "uint256"
        }
      ],
      "name": "approve",
      "outputs": [],
      "stateMutability": "nonpayable",
      "type": "function"
    },
    {
      "inputs": [
        {
          "internalType": "address",
          "name": "owner",
          "type": "address"
        }
      ],
      "name": "balanceOf",
      "outputs": [
        {
          "internalType": "uint256",
          "name": "",
          "type": "uint256"
        }
      ],
      "stateMutability": "view",
      "type": "function",
      "constant": true
    },
    {
      "inputs": [],
      "name": "baseURI",
      "outputs": [
        {
          "internalType": "string",
          "name": "",
          "type": "string"
        }
      ],
      "stateMutability": "view",
      "type": "function",
      "constant": true
    },
    {
      "inputs": [],
      "name": "collectionName",
      "outputs": [
        {
          "internalType": "string",
          "name": "",
          "type": "string"
        }
      ],
      "stateMutability": "view",
      "type": "function",
      "constant": true
    },
    {
      "inputs": [],
      "name": "collectionNameSymbol",
      "outputs": [
        {
          "internalType": "string",
          "name": "",
          "type": "string"
        }
      ],
      "stateMutability": "view",
      "type": "function",
      "constant": true
    },
    {
      "inputs": [
        {
          "internalType": "string",
          "name": "",
          "type": "string"
        }
      ],
      "name": "colorExists",
      "outputs": [
        {
          "internalType": "bool",
          "name": "",
          "type": "bool"
        }
      ],
      "stateMutability": "view",
      "type": "function",
      "constant": true
    },
    {
      "inputs": [],
      "name": "cryptoClanCounter",
      "outputs": [
        {
          "internalType": "uint256",
          "name": "",
          "type": "uint256"
        }
      ],
      "stateMutability": "view",
      "type": "function",
      "constant": true
    },
    {
      "inputs": [
        {
          "internalType": "uint256",
          "name": "tokenId",
          "type": "uint256"
        }
      ],
      "name": "getApproved",
      "outputs": [
        {
          "internalType": "address",
          "name": "",
          "type": "address"
        }
      ],
      "stateMutability": "view",
      "type": "function",
      "constant": true
    },
    {
      "inputs": [
        {
          "internalType": "address",
          "name": "owner",
          "type": "address"
        },
        {
          "internalType": "address",
          "name": "operator",
          "type": "address"
        }
      ],
      "name": "isApprovedForAll",
      "outputs": [
        {
          "internalType": "bool",
          "name": "",
          "type": "bool"
        }
      ],
      "stateMutability": "view",
      "type": "function",
      "constant": true
    },
    {
      "inputs": [],
      "name": "name",
      "outputs": [
        {
          "internalType": "string",
          "name": "",
          "type": "string"
        }
      ],
      "stateMutability": "view",
      "type": "function",
      "constant": true
    },
    {
      "inputs": [
        {
          "internalType": "uint256",
          "name": "tokenId",
          "type": "uint256"
        }
      ],
      "name": "ownerOf",
      "outputs": [
        {
          "internalType": "address",
          "name": "",
          "type": "address"
        }
      ],
      "stateMutability": "view",
      "type": "function",
      "constant": true
    },
    {
      "inputs": [
        {
          "internalType": "address",
          "name": "from",
          "type": "address"
        },
        {
          "internalType": "address",
          "name": "to",
          "type": "address"
        },
        {
          "internalType": "uint256",
          "name": "tokenId",
          "type": "uint256"
        }
      ],
      "name": "safeTransferFrom",
      "outputs": [],
      "stateMutability": "nonpayable",
      "type": "function"
    },
    {
      "inputs": [
        {
          "internalType": "address",
          "name": "from",
          "type": "address"
        },
        {
          "internalType": "address",
          "name": "to",
          "type": "address"
        },
        {
          "internalType": "uint256",
          "name": "tokenId",
          "type": "uint256"
        },
        {
          "internalType": "bytes",
          "name": "_data",
          "type": "bytes"
        }
      ],
      "name": "safeTransferFrom",
      "outputs": [],
      "stateMutability": "nonpayable",
      "type": "function"
    },
    {
      "inputs": [
        {
          "internalType": "address",
          "name": "operator",
          "type": "address"
        },
        {
          "internalType": "bool",
          "name": "approved",
          "type": "bool"
        }
      ],
      "name": "setApprovalForAll",
      "outputs": [],
      "stateMutability": "nonpayable",
      "type": "function"
    },
    {
      "inputs": [
        {
          "internalType": "bytes4",
          "name": "interfaceId",
          "type": "bytes4"
        }
      ],
      "name": "supportsInterface",
      "outputs": [
        {
          "internalType": "bool",
          "name": "",
          "type": "bool"
        }
      ],
      "stateMutability": "view",
      "type": "function",
      "constant": true
    },
    {
      "inputs": [],
      "name": "symbol",
      "outputs": [
        {
          "internalType": "string",
          "name": "",
          "type": "string"
        }
      ],
      "stateMutability": "view",
      "type": "function",
      "constant": true
    },
    {
      "inputs": [
        {
          "internalType": "uint256",
          "name": "index",
          "type": "uint256"
        }
      ],
      "name": "tokenByIndex",
      "outputs": [
        {
          "internalType": "uint256",
          "name": "",
          "type": "uint256"
        }
      ],
      "stateMutability": "view",
      "type": "function",
      "constant": true
    },
    {
      "inputs": [
        {
          "internalType": "string",
          "name": "",
          "type": "string"
        }
      ],
      "name": "tokenNameExists",
      "outputs": [
        {
          "internalType": "bool",
          "name": "",
          "type": "bool"
        }
      ],
      "stateMutability": "view",
      "type": "function",
      "constant": true
    },
    {
      "inputs": [
        {
          "internalType": "address",
          "name": "owner",
          "type": "address"
        },
        {
          "internalType": "uint256",
          "name": "index",
          "type": "uint256"
        }
      ],
      "name": "tokenOfOwnerByIndex",
      "outputs": [
        {
          "internalType": "uint256",
          "name": "",
          "type": "uint256"
        }
      ],
      "stateMutability": "view",
      "type": "function",
      "constant": true
    },
    {
      "inputs": [
        {
          "internalType": "uint256",
          "name": "tokenId",
          "type": "uint256"
        }
      ],
      "name": "tokenURI",
      "outputs": [
        {
          "internalType": "string",
          "name": "",
          "type": "string"
        }
      ],
      "stateMutability": "view",
      "type": "function",
      "constant": true
    },
    {
      "inputs": [
        {
          "internalType": "string",
          "name": "",
          "type": "string"
        }
      ],
      "name": "tokenURIExists",
      "outputs": [
        {
          "internalType": "bool",
          "name": "",
          "type": "bool"
        }
      ],
      "stateMutability": "view",
      "type": "function",
      "constant": true
    },
    {
      "inputs": [],
      "name": "totalSupply",
      "outputs": [
        {
          "internalType": "uint256",
          "name": "",
          "type": "uint256"
        }
      ],
      "stateMutability": "view",
      "type": "function",
      "constant": true
    },
    {
      "inputs": [
        {
          "internalType": "address",
          "name": "from",
          "type": "address"
        },
        {
          "internalType": "address",
          "name": "to",
          "type": "address"
        },
        {
          "internalType": "uint256",
          "name": "tokenId",
          "type": "uint256"
        }
      ],
      "name": "transferFrom",
      "outputs": [],
      "stateMutability": "nonpayable",
      "type": "function"
    },
    {
      "inputs": [
        {
          "internalType": "string",
          "name": "_name",
          "type": "string"
        },
        {
          "internalType": "string",
          "name": "_tokenURI",
          "type": "string"
        },
        {
          "internalType": "uint256",
          "name": "_price",
          "type": "uint256"
        },
        {
          "internalType": "string[]",
          "name": "_colors",
          "type": "string[]"
        }
      ],
      "name": "mintCryptoClan",
      "outputs": [],
      "stateMutability": "nonpayable",
      "type": "function"
    },
    {
      "inputs": [
        {
          "internalType": "uint256",
          "name": "_tokenId",
          "type": "uint256"
        }
      ],
      "name": "getTokenOwner",
      "outputs": [
        {
          "internalType": "address",
          "name": "",
          "type": "address"
        }
      ],
      "stateMutability": "view",
      "type": "function",
      "constant": true
    },
    {
      "inputs": [
        {
          "internalType": "uint256",
          "name": "_tokenId",
          "type": "uint256"
        }
      ],
      "name": "getTokenMetaData",
      "outputs": [
        {
          "internalType": "string",
          "name": "",
          "type": "string"
        }
      ],
      "stateMutability": "view",
      "type": "function",
      "constant": true
    },
    {
      "inputs": [],
      "name": "getNumberOfTokensMinted",
      "outputs": [
        {
          "internalType": "uint256",
          "name": "",
          "type": "uint256"
        }
      ],
      "stateMutability": "view",
      "type": "function",
      "constant": true
    },
    {
      "inputs": [
        {
          "internalType": "address",
          "name": "_owner",
          "type": "address"
        }
      ],
      "name": "getTotalNumberOfTokensOwnedByAnAddress",
      "outputs": [
        {
          "internalType": "uint256",
          "name": "",
          "type": "uint256"
        }
      ],
      "stateMutability": "view",
      "type": "function",
      "constant": true
    },
    {
      "inputs": [
        {
          "internalType": "uint256",
          "name": "_tokenId",
          "type": "uint256"
        }
      ],
      "name": "getTokenExists",
      "outputs": [
        {
          "internalType": "bool",
          "name": "",
          "type": "bool"
        }
      ],
      "stateMutability": "view",
      "type": "function",
      "constant": true
    },
    {
      "inputs": [
        {
          "internalType": "uint256",
          "name": "_tokenId",
          "type": "uint256"
        }
      ],
      "name": "buyToken",
      "outputs": [],
      "stateMutability": "payable",
      "type": "function",
      "payable": true
    },
    {
      "inputs": [
        {
          "internalType": "uint256",
          "name": "_tokenId",
          "type": "uint256"
        },
        {
          "internalType": "uint256",
          "name": "_newPrice",
          "type": "uint256"
        }
      ],
      "name": "changeTokenPrice",
      "outputs": [],
      "stateMutability": "nonpayable",
      "type": "function"
    },
    {
      "inputs": [
        {
          "internalType": "uint256",
          "name": "_tokenId",
          "type": "uint256"
        }
      ],
      "name": "toggleForSale",
      "outputs": [],
      "stateMutability": "nonpayable",
      "type": "function"
    }
  ],
  "bytecode": "0x60806040523480156200001157600080fd5b506040518060400160405280601781526020017f43727970746f20436c616e7320436f6c6c656374696f6e0000000000000000008152506040518060400160405280600281526020017f4343000000000000000000000000000000000000000000000000000000000000815250620000966301ffc9a760e01b6200016860201b60201c565b8160069080519060200190620000ae929190620003bd565b508060079080519060200190620000c7929190620003bd565b50620000e06380ac58cd60e01b6200016860201b60201c565b620000f8635b5e139f60e01b6200016860201b60201c565b6200011063780e9d6360e01b6200016860201b60201c565b5050620001226200027160201b60201c565b600a908051906020019062000139929190620003bd565b506200014a6200031760201b60201c565b600b908051906020019062000161929190620003bd565b5062000473565b63ffffffff60e01b817bffffffffffffffffffffffffffffffffffffffffffffffffffffffff1916141562000205576040517f08c379a000000000000000000000000000000000000000000000000000000000815260040180806020018281038252601c8152602001807f4552433136353a20696e76616c696420696e746572666163652069640000000081525060200191505060405180910390fd5b6001600080837bffffffffffffffffffffffffffffffffffffffffffffffffffffffff19167bffffffffffffffffffffffffffffffffffffffffffffffffffffffff1916815260200190815260200160002060006101000a81548160ff02191690831515021790555050565b606060068054600181600116156101000203166002900480601f0160208091040260200160405190810160405280929190818152602001828054600181600116156101000203166002900480156200030d5780601f10620002e1576101008083540402835291602001916200030d565b820191906000526020600020905b815481529060010190602001808311620002ef57829003601f168201915b5050505050905090565b606060078054600181600116156101000203166002900480601f016020809104026020016040519081016040528092919081815260200182805460018160011615610100020316600290048015620003b35780601f106200038757610100808354040283529160200191620003b3565b820191906000526020600020905b8154815290600101906020018083116200039557829003601f168201915b5050505050905090565b828054600181600116156101000203166002900490600052602060002090601f016020900481019282620003f5576000855562000441565b82601f106200041057805160ff191683800117855562000441565b8280016001018555821562000441579182015b828111156200044057825182559160200191906001019062000423565b5b50905062000450919062000454565b5090565b5b808211156200046f57600081600090555060010162000455565b5090565b614b0880620004836000396000f3fe6080604052600436106101ee5760003560e01c80636352211e1161010d578063a32018b9116100a0578063c87b56dd1161006f578063c87b56dd1461078c578063cc151f3a146107c9578063e5326ab1146107f4578063e985e9c51461081f578063ffc27e511461085c576101ee565b8063a32018b9146106c0578063a46b1fac146106e9578063a5cd761f14610726578063b88d4fde14610763576101ee565b806370a08231116100dc57806370a08231146105f25780638d44807c1461062f57806395d89b411461066c578063a22cb46514610697576101ee565b80636352211e1461052257806367c623cf1461055f5780636c0360eb1461059c5780636f9507f9146105c7576101ee565b80632f745c591161018557806343d32ae71161015457806343d32ae71461043a5780634f6ccce714610477578063506fd5da146104b457806362e8e8ac146104f9576101ee565b80632f745c591461036e5780633efe8d8a146103ab57806342842e0e146103d457806343902850146103fd576101ee565b8063142687f3116101c1578063142687f3146102c157806318160ddd146102fe57806323b872dd146103295780632d296bf114610352576101ee565b806301ffc9a7146101f357806306fdde0314610230578063081812fc1461025b578063095ea7b314610298575b600080fd5b3480156101ff57600080fd5b5061021a6004803603810190610215919061428b565b610887565b6040516102279190614520565b60405180910390f35b34801561023c57600080fd5b506102456108ee565b604051610252919061453b565b60405180910390f35b34801561026757600080fd5b50610282600480360381019061027d91906143a5565b610990565b60405161028f9190614505565b60405180910390f35b3480156102a457600080fd5b506102bf60048036038101906102ba919061424f565b610a2b565b005b3480156102cd57600080fd5b506102e860048036038101906102e391906143a5565b610b6f565b6040516102f59190614520565b60405180910390f35b34801561030a57600080fd5b50610313610b81565b604051610320919061455d565b60405180910390f35b34801561033557600080fd5b50610350600480360381019061034b9190614149565b610b92565b005b61036c600480360381019061036791906143a5565b610c08565b005b34801561037a57600080fd5b506103956004803603810190610390919061424f565b6111e1565b6040516103a2919061455d565b60405180910390f35b3480156103b757600080fd5b506103d260048036038101906103cd91906142f5565b61123c565b005b3480156103e057600080fd5b506103fb60048036038101906103f69190614149565b61166c565b005b34801561040957600080fd5b50610424600480360381019061041f91906140e4565b61168c565b604051610431919061455d565b60405180910390f35b34801561044657600080fd5b50610461600480360381019061045c91906142b4565b61169e565b60405161046e9190614520565b60405180910390f35b34801561048357600080fd5b5061049e600480360381019061049991906143a5565b6116d4565b6040516104ab919061455d565b60405180910390f35b3480156104c057600080fd5b506104db60048036038101906104d691906143a5565b6116f7565b6040516104f099989796959493929190614578565b60405180910390f35b34801561050557600080fd5b50610520600480360381019061051b91906143ce565b6118e2565b005b34801561052e57600080fd5b50610549600480360381019061054491906143a5565b611d8a565b6040516105569190614505565b60405180910390f35b34801561056b57600080fd5b50610586600480360381019061058191906143a5565b611dc1565b604051610593919061453b565b60405180910390f35b3480156105a857600080fd5b506105b1611dd3565b6040516105be919061453b565b60405180910390f35b3480156105d357600080fd5b506105dc611e75565b6040516105e9919061453b565b60405180910390f35b3480156105fe57600080fd5b50610619600480360381019061061491906140e4565b611f13565b604051610626919061455d565b60405180910390f35b34801561063b57600080fd5b50610656600480360381019061065191906142b4565b611fe8565b6040516106639190614520565b60405180910390f35b34801561067857600080fd5b5061068161201e565b60405161068e919061453b565b60405180910390f35b3480156106a357600080fd5b506106be60048036038101906106b99190614213565b6120c0565b005b3480156106cc57600080fd5b506106e760048036038101906106e291906143a5565b612276565b005b3480156106f557600080fd5b50610710600480360381019061070b91906142b4565b61272a565b60405161071d9190614520565b60405180910390f35b34801561073257600080fd5b5061074d600480360381019061074891906143a5565b612760565b60405161075a9190614505565b60405180910390f35b34801561076f57600080fd5b5061078a60048036038101906107859190614198565b612772565b005b34801561079857600080fd5b506107b360048036038101906107ae91906143a5565b6127ea565b6040516107c0919061453b565b60405180910390f35b3480156107d557600080fd5b506107de612abb565b6040516107eb919061455d565b60405180910390f35b34801561080057600080fd5b50610809612aca565b604051610816919061453b565b60405180910390f35b34801561082b57600080fd5b506108466004803603810190610841919061410d565b612b68565b6040516108539190614520565b60405180910390f35b34801561086857600080fd5b50610871612bfc565b60405161087e919061455d565b60405180910390f35b6000806000837bffffffffffffffffffffffffffffffffffffffffffffffffffffffff19167bffffffffffffffffffffffffffffffffffffffffffffffffffffffff1916815260200190815260200160002060009054906101000a900460ff169050919050565b606060068054600181600116156101000203166002900480601f0160208091040260200160405190810160405280929190818152602001828054600181600116156101000203166002900480156109865780601f1061095b57610100808354040283529160200191610986565b820191906000526020600020905b81548152906001019060200180831161096957829003601f168201915b5050505050905090565b600061099b82612c02565b6109f0576040517f08c379a000000000000000000000000000000000000000000000000000000000815260040180806020018281038252602c8152602001806149d1602c913960400191505060405180910390fd5b6004600083815260200190815260200160002060009054906101000a900473ffffffffffffffffffffffffffffffffffffffff169050919050565b6000610a3682611d8a565b90508073ffffffffffffffffffffffffffffffffffffffff168373ffffffffffffffffffffffffffffffffffffffff161415610abd576040517f08c379a0000000000000000000000000000000000000000000000000000000008152600401808060200182810382526021815260200180614a816021913960400191505060405180910390fd5b8073ffffffffffffffffffffffffffffffffffffffff16610adc612c1f565b73ffffffffffffffffffffffffffffffffffffffff161480610b0b5750610b0a81610b05612c1f565b612b68565b5b610b60576040517f08c379a00000000000000000000000000000000000000000000000000000000081526004018080602001828103825260388152602001806149246038913960400191505060405180910390fd5b610b6a8383612c27565b505050565b6000610b7a82612c02565b9050919050565b6000610b8d6002612ce0565b905090565b610ba3610b9d612c1f565b82612cf5565b610bf8576040517f08c379a0000000000000000000000000000000000000000000000000000000008152600401808060200182810382526031815260200180614aa26031913960400191505060405180910390fd5b610c03838383612de9565b505050565b600073ffffffffffffffffffffffffffffffffffffffff163373ffffffffffffffffffffffffffffffffffffffff161415610c4257600080fd5b610c4b81612c02565b610c5457600080fd5b6000610c5f82611d8a565b9050600073ffffffffffffffffffffffffffffffffffffffff168173ffffffffffffffffffffffffffffffffffffffff161415610c9b57600080fd5b3373ffffffffffffffffffffffffffffffffffffffff168173ffffffffffffffffffffffffffffffffffffffff161415610cd457600080fd5b6000600d60008481526020019081526020016000206040518061012001604052908160008201548152602001600182018054600181600116156101000203166002900480601f016020809104026020016040519081016040528092919081815260200182805460018160011615610100020316600290048015610d985780601f10610d6d57610100808354040283529160200191610d98565b820191906000526020600020905b815481529060010190602001808311610d7b57829003601f168201915b50505050508152602001600282018054600181600116156101000203166002900480601f016020809104026020016040519081016040528092919081815260200182805460018160011615610100020316600290048015610e3a5780601f10610e0f57610100808354040283529160200191610e3a565b820191906000526020600020905b815481529060010190602001808311610e1d57829003601f168201915b505050505081526020016003820160009054906101000a900473ffffffffffffffffffffffffffffffffffffffff1673ffffffffffffffffffffffffffffffffffffffff1673ffffffffffffffffffffffffffffffffffffffff1681526020016004820160009054906101000a900473ffffffffffffffffffffffffffffffffffffffff1673ffffffffffffffffffffffffffffffffffffffff1673ffffffffffffffffffffffffffffffffffffffff1681526020016005820160009054906101000a900473ffffffffffffffffffffffffffffffffffffffff1673ffffffffffffffffffffffffffffffffffffffff1673ffffffffffffffffffffffffffffffffffffffff16815260200160068201548152602001600782015481526020016008820160009054906101000a900460ff16151515158152505090508060c00151341015610f8757600080fd5b806101000151610f9657600080fd5b610fa1823385612de9565b6000816080015190508073ffffffffffffffffffffffffffffffffffffffff166108fc349081150290604051600060405180830381858888f19350505050158015610ff0573d6000803e3d6000fd5b5081608001518260a0019073ffffffffffffffffffffffffffffffffffffffff16908173ffffffffffffffffffffffffffffffffffffffff168152505033826080019073ffffffffffffffffffffffffffffffffffffffff16908173ffffffffffffffffffffffffffffffffffffffff168152505060018260e001818151019150818152505081600d60008681526020019081526020016000206000820151816000015560208201518160010190805190602001906110b0929190613ecb565b5060408201518160020190805190602001906110cd929190613ecb565b5060608201518160030160006101000a81548173ffffffffffffffffffffffffffffffffffffffff021916908373ffffffffffffffffffffffffffffffffffffffff16021790555060808201518160040160006101000a81548173ffffffffffffffffffffffffffffffffffffffff021916908373ffffffffffffffffffffffffffffffffffffffff16021790555060a08201518160050160006101000a81548173ffffffffffffffffffffffffffffffffffffffff021916908373ffffffffffffffffffffffffffffffffffffffff16021790555060c0820151816006015560e082015181600701556101008201518160080160006101000a81548160ff02191690831515021790555090505050505050565b600061123482600160008673ffffffffffffffffffffffffffffffffffffffff1673ffffffffffffffffffffffffffffffffffffffff16815260200190815260200160002061302c90919063ffffffff16565b905092915050565b600073ffffffffffffffffffffffffffffffffffffffff163373ffffffffffffffffffffffffffffffffffffffff16141561127657600080fd5b600c60008154809291906001019190505550611293600c54612c02565b1561129d57600080fd5b60005b8282905081101561130c57600f8383838181106112b957fe5b90506020028101906112cb9190614613565b6040516112d99291906144d5565b908152602001604051809103902060009054906101000a900460ff16156112ff57600080fd5b80806001019150506112a0565b5060108460405161131d91906144ee565b908152602001604051809103902060009054906101000a900460ff161561134357600080fd5b600e8560405161135391906144ee565b908152602001604051809103902060009054906101000a900460ff161561137957600080fd5b61138533600c54613046565b611391600c548561323a565b60005b82829050811015611401576001600f8484848181106113af57fe5b90506020028101906113c19190614613565b6040516113cf9291906144d5565b908152602001604051809103902060006101000a81548160ff0219169083151502179055508080600101915050611394565b50600160108560405161141491906144ee565b908152602001604051809103902060006101000a81548160ff0219169083151502179055506001600e8660405161144b91906144ee565b908152602001604051809103902060006101000a81548160ff0219169083151502179055506000604051806101200160405280600c5481526020018781526020018681526020013373ffffffffffffffffffffffffffffffffffffffff1681526020013373ffffffffffffffffffffffffffffffffffffffff168152602001600073ffffffffffffffffffffffffffffffffffffffff1681526020018581526020016000815260200160011515815250905080600d6000600c548152602001908152602001600020600082015181600001556020820151816001019080519060200190611539929190613ecb565b506040820151816002019080519060200190611556929190613ecb565b5060608201518160030160006101000a81548173ffffffffffffffffffffffffffffffffffffffff021916908373ffffffffffffffffffffffffffffffffffffffff16021790555060808201518160040160006101000a81548173ffffffffffffffffffffffffffffffffffffffff021916908373ffffffffffffffffffffffffffffffffffffffff16021790555060a08201518160050160006101000a81548173ffffffffffffffffffffffffffffffffffffffff021916908373ffffffffffffffffffffffffffffffffffffffff16021790555060c0820151816006015560e082015181600701556101008201518160080160006101000a81548160ff021916908315150217905550905050505050505050565b61168783838360405180602001604052806000815250612772565b505050565b600061169782611f13565b9050919050565b6010818051602081018201805184825260208301602085012081835280955050505050506000915054906101000a900460ff1681565b6000806116eb8360026132c490919063ffffffff16565b50905080915050919050565b600d602052806000526040600020600091509050806000015490806001018054600181600116156101000203166002900480601f0160208091040260200160405190810160405280929190818152602001828054600181600116156101000203166002900480156117a95780601f1061177e576101008083540402835291602001916117a9565b820191906000526020600020905b81548152906001019060200180831161178c57829003601f168201915b505050505090806002018054600181600116156101000203166002900480601f0160208091040260200160405190810160405280929190818152602001828054600181600116156101000203166002900480156118475780601f1061181c57610100808354040283529160200191611847565b820191906000526020600020905b81548152906001019060200180831161182a57829003601f168201915b5050505050908060030160009054906101000a900473ffffffffffffffffffffffffffffffffffffffff16908060040160009054906101000a900473ffffffffffffffffffffffffffffffffffffffff16908060050160009054906101000a900473ffffffffffffffffffffffffffffffffffffffff16908060060154908060070154908060080160009054906101000a900460ff16905089565b600073ffffffffffffffffffffffffffffffffffffffff163373ffffffffffffffffffffffffffffffffffffffff16141561191c57600080fd5b61192582612c02565b61192e57600080fd5b600061193983611d8a565b90503373ffffffffffffffffffffffffffffffffffffffff168173ffffffffffffffffffffffffffffffffffffffff161461197357600080fd5b6000600d60008581526020019081526020016000206040518061012001604052908160008201548152602001600182018054600181600116156101000203166002900480601f016020809104026020016040519081016040528092919081815260200182805460018160011615610100020316600290048015611a375780601f10611a0c57610100808354040283529160200191611a37565b820191906000526020600020905b815481529060010190602001808311611a1a57829003601f168201915b50505050508152602001600282018054600181600116156101000203166002900480601f016020809104026020016040519081016040528092919081815260200182805460018160011615610100020316600290048015611ad95780601f10611aae57610100808354040283529160200191611ad9565b820191906000526020600020905b815481529060010190602001808311611abc57829003601f168201915b505050505081526020016003820160009054906101000a900473ffffffffffffffffffffffffffffffffffffffff1673ffffffffffffffffffffffffffffffffffffffff1673ffffffffffffffffffffffffffffffffffffffff1681526020016004820160009054906101000a900473ffffffffffffffffffffffffffffffffffffffff1673ffffffffffffffffffffffffffffffffffffffff1673ffffffffffffffffffffffffffffffffffffffff1681526020016005820160009054906101000a900473ffffffffffffffffffffffffffffffffffffffff1673ffffffffffffffffffffffffffffffffffffffff1673ffffffffffffffffffffffffffffffffffffffff16815260200160068201548152602001600782015481526020016008820160009054906101000a900460ff1615151515815250509050828160c001818152505080600d6000868152602001908152602001600020600082015181600001556020820151816001019080519060200190611c59929190613ecb565b506040820151816002019080519060200190611c76929190613ecb565b5060608201518160030160006101000a81548173ffffffffffffffffffffffffffffffffffffffff021916908373ffffffffffffffffffffffffffffffffffffffff16021790555060808201518160040160006101000a81548173ffffffffffffffffffffffffffffffffffffffff021916908373ffffffffffffffffffffffffffffffffffffffff16021790555060a08201518160050160006101000a81548173ffffffffffffffffffffffffffffffffffffffff021916908373ffffffffffffffffffffffffffffffffffffffff16021790555060c0820151816006015560e082015181600701556101008201518160080160006101000a81548160ff02191690831515021790555090505050505050565b6000611dba826040518060600160405280602981526020016149866029913960026132f09092919063ffffffff16565b9050919050565b6060611dcc826127ea565b9050919050565b606060098054600181600116156101000203166002900480601f016020809104026020016040519081016040528092919081815260200182805460018160011615610100020316600290048015611e6b5780601f10611e4057610100808354040283529160200191611e6b565b820191906000526020600020905b815481529060010190602001808311611e4e57829003601f168201915b5050505050905090565b600b8054600181600116156101000203166002900480601f016020809104026020016040519081016040528092919081815260200182805460018160011615610100020316600290048015611f0b5780601f10611ee057610100808354040283529160200191611f0b565b820191906000526020600020905b815481529060010190602001808311611eee57829003601f168201915b505050505081565b60008073ffffffffffffffffffffffffffffffffffffffff168273ffffffffffffffffffffffffffffffffffffffff161415611f9a576040517f08c379a000000000000000000000000000000000000000000000000000000000815260040180806020018281038252602a81526020018061495c602a913960400191505060405180910390fd5b611fe1600160008473ffffffffffffffffffffffffffffffffffffffff1673ffffffffffffffffffffffffffffffffffffffff16815260200190815260200160002061330f565b9050919050565b600f818051602081018201805184825260208301602085012081835280955050505050506000915054906101000a900460ff1681565b606060078054600181600116156101000203166002900480601f0160208091040260200160405190810160405280929190818152602001828054600181600116156101000203166002900480156120b65780601f1061208b576101008083540402835291602001916120b6565b820191906000526020600020905b81548152906001019060200180831161209957829003601f168201915b5050505050905090565b6120c8612c1f565b73ffffffffffffffffffffffffffffffffffffffff168273ffffffffffffffffffffffffffffffffffffffff161415612169576040517f08c379a00000000000000000000000000000000000000000000000000000000081526004018080602001828103825260198152602001807f4552433732313a20617070726f766520746f2063616c6c65720000000000000081525060200191505060405180910390fd5b8060056000612176612c1f565b73ffffffffffffffffffffffffffffffffffffffff1673ffffffffffffffffffffffffffffffffffffffff16815260200190815260200160002060008473ffffffffffffffffffffffffffffffffffffffff1673ffffffffffffffffffffffffffffffffffffffff16815260200190815260200160002060006101000a81548160ff0219169083151502179055508173ffffffffffffffffffffffffffffffffffffffff16612223612c1f565b73ffffffffffffffffffffffffffffffffffffffff167f17307eab39ab6107e8899845ad3d59bd9653f200f220920489ca2b5937696c318360405180821515815260200191505060405180910390a35050565b600073ffffffffffffffffffffffffffffffffffffffff163373ffffffffffffffffffffffffffffffffffffffff1614156122b057600080fd5b6122b981612c02565b6122c257600080fd5b60006122cd82611d8a565b90503373ffffffffffffffffffffffffffffffffffffffff168173ffffffffffffffffffffffffffffffffffffffff161461230757600080fd5b6000600d60008481526020019081526020016000206040518061012001604052908160008201548152602001600182018054600181600116156101000203166002900480601f0160208091040260200160405190810160405280929190818152602001828054600181600116156101000203166002900480156123cb5780601f106123a0576101008083540402835291602001916123cb565b820191906000526020600020905b8154815290600101906020018083116123ae57829003601f168201915b50505050508152602001600282018054600181600116156101000203166002900480601f01602080910402602001604051908101604052809291908181526020018280546001816001161561010002031660029004801561246d5780601f106124425761010080835404028352916020019161246d565b820191906000526020600020905b81548152906001019060200180831161245057829003601f168201915b505050505081526020016003820160009054906101000a900473ffffffffffffffffffffffffffffffffffffffff1673ffffffffffffffffffffffffffffffffffffffff1673ffffffffffffffffffffffffffffffffffffffff1681526020016004820160009054906101000a900473ffffffffffffffffffffffffffffffffffffffff1673ffffffffffffffffffffffffffffffffffffffff1673ffffffffffffffffffffffffffffffffffffffff1681526020016005820160009054906101000a900473ffffffffffffffffffffffffffffffffffffffff1673ffffffffffffffffffffffffffffffffffffffff1673ffffffffffffffffffffffffffffffffffffffff16815260200160068201548152602001600782015481526020016008820160009054906101000a900460ff1615151515815250509050806101000151158161010001901515908115158152505080600d60008581526020019081526020016000206000820151816000015560208201518160010190805190602001906125fa929190613ecb565b506040820151816002019080519060200190612617929190613ecb565b5060608201518160030160006101000a81548173ffffffffffffffffffffffffffffffffffffffff021916908373ffffffffffffffffffffffffffffffffffffffff16021790555060808201518160040160006101000a81548173ffffffffffffffffffffffffffffffffffffffff021916908373ffffffffffffffffffffffffffffffffffffffff16021790555060a08201518160050160006101000a81548173ffffffffffffffffffffffffffffffffffffffff021916908373ffffffffffffffffffffffffffffffffffffffff16021790555060c0820151816006015560e082015181600701556101008201518160080160006101000a81548160ff021916908315150217905550905050505050565b600e818051602081018201805184825260208301602085012081835280955050505050506000915054906101000a900460ff1681565b600061276b82611d8a565b9050919050565b61278361277d612c1f565b83612cf5565b6127d8576040517f08c379a0000000000000000000000000000000000000000000000000000000008152600401808060200182810382526031815260200180614aa26031913960400191505060405180910390fd5b6127e484848484613324565b50505050565b60606127f582612c02565b61284a576040517f08c379a000000000000000000000000000000000000000000000000000000000815260040180806020018281038252602f815260200180614a52602f913960400191505060405180910390fd5b6000600860008481526020019081526020016000208054600181600116156101000203166002900480601f0160208091040260200160405190810160405280929190818152602001828054600181600116156101000203166002900480156128f35780601f106128c8576101008083540402835291602001916128f3565b820191906000526020600020905b8154815290600101906020018083116128d657829003601f168201915b505050505090506000612904611dd3565b905060008151141561291a578192505050612ab6565b6000825111156129eb5780826040516020018083805190602001908083835b6020831061295c5780518252602082019150602081019050602083039250612939565b6001836020036101000a03801982511681845116808217855250505050505090500182805190602001908083835b602083106129ad578051825260208201915060208101905060208303925061298a565b6001836020036101000a0380198251168184511680821785525050505050509050019250505060405160208183030381529060405292505050612ab6565b806129f585613396565b6040516020018083805190602001908083835b60208310612a2b5780518252602082019150602081019050602083039250612a08565b6001836020036101000a03801982511681845116808217855250505050505090500182805190602001908083835b60208310612a7c5780518252602082019150602081019050602083039250612a59565b6001836020036101000a03801982511681845116808217855250505050505090500192505050604051602081830303815290604052925050505b919050565b6000612ac5610b81565b905090565b600a8054600181600116156101000203166002900480601f016020809104026020016040519081016040528092919081815260200182805460018160011615610100020316600290048015612b605780601f10612b3557610100808354040283529160200191612b60565b820191906000526020600020905b815481529060010190602001808311612b4357829003601f168201915b505050505081565b6000600560008473ffffffffffffffffffffffffffffffffffffffff1673ffffffffffffffffffffffffffffffffffffffff16815260200190815260200160002060008373ffffffffffffffffffffffffffffffffffffffff1673ffffffffffffffffffffffffffffffffffffffff16815260200190815260200160002060009054906101000a900460ff16905092915050565b600c5481565b6000612c188260026134dd90919063ffffffff16565b9050919050565b600033905090565b816004600083815260200190815260200160002060006101000a81548173ffffffffffffffffffffffffffffffffffffffff021916908373ffffffffffffffffffffffffffffffffffffffff160217905550808273ffffffffffffffffffffffffffffffffffffffff16612c9a83611d8a565b73ffffffffffffffffffffffffffffffffffffffff167f8c5be1e5ebec7d5bd14f71427d1e84f3dd0314c0f7b2291e5b200ac8c7c3b92560405160405180910390a45050565b6000612cee826000016134f7565b9050919050565b6000612d0082612c02565b612d55576040517f08c379a000000000000000000000000000000000000000000000000000000000815260040180806020018281038252602c8152602001806148f8602c913960400191505060405180910390fd5b6000612d6083611d8a565b90508073ffffffffffffffffffffffffffffffffffffffff168473ffffffffffffffffffffffffffffffffffffffff161480612dcf57508373ffffffffffffffffffffffffffffffffffffffff16612db784610990565b73ffffffffffffffffffffffffffffffffffffffff16145b80612de05750612ddf8185612b68565b5b91505092915050565b8273ffffffffffffffffffffffffffffffffffffffff16612e0982611d8a565b73ffffffffffffffffffffffffffffffffffffffff1614612e75576040517f08c379a0000000000000000000000000000000000000000000000000000000008152600401808060200182810382526029815260200180614a296029913960400191505060405180910390fd5b600073ffffffffffffffffffffffffffffffffffffffff168273ffffffffffffffffffffffffffffffffffffffff161415612efb576040517f08c379a00000000000000000000000000000000000000000000000000000000081526004018080602001828103825260248152602001806148ae6024913960400191505060405180910390fd5b612f06838383613508565b612f11600082612c27565b612f6281600160008673ffffffffffffffffffffffffffffffffffffffff1673ffffffffffffffffffffffffffffffffffffffff16815260200190815260200160002061350d90919063ffffffff16565b50612fb481600160008573ffffffffffffffffffffffffffffffffffffffff1673ffffffffffffffffffffffffffffffffffffffff16815260200190815260200160002061352790919063ffffffff16565b50612fcb818360026135419092919063ffffffff16565b50808273ffffffffffffffffffffffffffffffffffffffff168473ffffffffffffffffffffffffffffffffffffffff167fddf252ad1be2c89b69c2b068fc378daa952ba7f163c4a11628f55a4df523b3ef60405160405180910390a4505050565b600061303b8360000183613576565b60001c905092915050565b600073ffffffffffffffffffffffffffffffffffffffff168273ffffffffffffffffffffffffffffffffffffffff1614156130e9576040517f08c379a00000000000000000000000000000000000000000000000000000000081526004018080602001828103825260208152602001807f4552433732313a206d696e7420746f20746865207a65726f206164647265737381525060200191505060405180910390fd5b6130f281612c02565b15613165576040517f08c379a000000000000000000000000000000000000000000000000000000000815260040180806020018281038252601c8152602001807f4552433732313a20746f6b656e20616c7265616479206d696e7465640000000081525060200191505060405180910390fd5b61317160008383613508565b6131c281600160008573ffffffffffffffffffffffffffffffffffffffff1673ffffffffffffffffffffffffffffffffffffffff16815260200190815260200160002061352790919063ffffffff16565b506131d9818360026135419092919063ffffffff16565b50808273ffffffffffffffffffffffffffffffffffffffff16600073ffffffffffffffffffffffffffffffffffffffff167fddf252ad1be2c89b69c2b068fc378daa952ba7f163c4a11628f55a4df523b3ef60405160405180910390a45050565b61324382612c02565b613298576040517f08c379a000000000000000000000000000000000000000000000000000000000815260040180806020018281038252602c8152602001806149fd602c913960400191505060405180910390fd5b806008600084815260200190815260200160002090805190602001906132bf929190613ecb565b505050565b6000806000806132d786600001866135f9565b915091508160001c8160001c9350935050509250929050565b6000613303846000018460001b84613692565b60001c90509392505050565b600061331d82600001613788565b9050919050565b61332f848484612de9565b61333b84848484613799565b613390576040517f08c379a000000000000000000000000000000000000000000000000000000000815260040180806020018281038252603281526020018061487c6032913960400191505060405180910390fd5b50505050565b606060008214156133de576040518060400160405280600181526020017f300000000000000000000000000000000000000000000000000000000000000081525090506134d8565b600082905060005b60008214613408578080600101915050600a828161340057fe5b0491506133e6565b60008167ffffffffffffffff8111801561342157600080fd5b506040519080825280601f01601f1916602001820160405280156134545781602001600182028036833780820191505090505b50905060006001830390508593505b600084146134d057600a848161347557fe5b0660300160f81b8282806001900393508151811061348f57fe5b60200101907effffffffffffffffffffffffffffffffffffffffffffffffffffffffffffff1916908160001a905350600a84816134c857fe5b049350613463565b819450505050505b919050565b60006134ef836000018360001b6139b2565b905092915050565b600081600001805490509050919050565b505050565b600061351f836000018360001b6139d5565b905092915050565b6000613539836000018360001b613abd565b905092915050565b600061356d846000018460001b8473ffffffffffffffffffffffffffffffffffffffff1660001b613b2d565b90509392505050565b6000818360000180549050116135d7576040517f08c379a000000000000000000000000000000000000000000000000000000000815260040180806020018281038252602281526020018061485a6022913960400191505060405180910390fd5b8260000182815481106135e657fe5b9060005260206000200154905092915050565b6000808284600001805490501161365b576040517f08c379a00000000000000000000000000000000000000000000000000000000081526004018080602001828103825260228152602001806149af6022913960400191505060405180910390fd5b600084600001848154811061366c57fe5b906000526020600020906002020190508060000154816001015492509250509250929050565b60008084600101600085815260200190815260200160002054905060008114158390613759576040517f08c379a00000000000000000000000000000000000000000000000000000000081526004018080602001828103825283818151815260200191508051906020019080838360005b8381101561371e578082015181840152602081019050613703565b50505050905090810190601f16801561374b5780820380516001836020036101000a031916815260200191505b509250505060405180910390fd5b5084600001600182038154811061376c57fe5b9060005260206000209060020201600101549150509392505050565b600081600001805490509050919050565b60006137ba8473ffffffffffffffffffffffffffffffffffffffff16613c09565b6137c757600190506139aa565b600061393163150b7a0260e01b6137dc612c1f565b888787604051602401808573ffffffffffffffffffffffffffffffffffffffff1681526020018473ffffffffffffffffffffffffffffffffffffffff16815260200183815260200180602001828103825283818151815260200191508051906020019080838360005b83811015613860578082015181840152602081019050613845565b50505050905090810190601f16801561388d5780820380516001836020036101000a031916815260200191505b5095505050505050604051602081830303815290604052907bffffffffffffffffffffffffffffffffffffffffffffffffffffffff19166020820180517bffffffffffffffffffffffffffffffffffffffffffffffffffffffff838183161783525050505060405180606001604052806032815260200161487c603291398773ffffffffffffffffffffffffffffffffffffffff16613c1c9092919063ffffffff16565b9050600081806020019051602081101561394a57600080fd5b8101908080519060200190929190505050905063150b7a0260e01b7bffffffffffffffffffffffffffffffffffffffffffffffffffffffff1916817bffffffffffffffffffffffffffffffffffffffffffffffffffffffff191614925050505b949350505050565b600080836001016000848152602001908152602001600020541415905092915050565b60008083600101600084815260200190815260200160002054905060008114613ab15760006001820390506000600186600001805490500390506000866000018281548110613a2057fe5b9060005260206000200154905080876000018481548110613a3d57fe5b9060005260206000200181905550600183018760010160008381526020019081526020016000208190555086600001805480613a7557fe5b60019003818190600052602060002001600090559055866001016000878152602001908152602001600020600090556001945050505050613ab7565b60009150505b92915050565b6000613ac98383613c34565b613b22578260000182908060018154018082558091505060019003906000526020600020016000909190919091505582600001805490508360010160008481526020019081526020016000208190555060019050613b27565b600090505b92915050565b6000808460010160008581526020019081526020016000205490506000811415613bd457846000016040518060400160405280868152602001858152509080600181540180825580915050600190039060005260206000209060020201600090919091909150600082015181600001556020820151816001015550508460000180549050856001016000868152602001908152602001600020819055506001915050613c02565b82856000016001830381548110613be757fe5b90600052602060002090600202016001018190555060009150505b9392505050565b600080823b905060008111915050919050565b6060613c2b8484600085613c57565b90509392505050565b600080836001016000848152602001908152602001600020541415905092915050565b606082471015613cb2576040517f08c379a00000000000000000000000000000000000000000000000000000000081526004018080602001828103825260268152602001806148d26026913960400191505060405180910390fd5b613cbb85613c09565b613d2d576040517f08c379a000000000000000000000000000000000000000000000000000000000815260040180806020018281038252601d8152602001807f416464726573733a2063616c6c20746f206e6f6e2d636f6e747261637400000081525060200191505060405180910390fd5b6000808673ffffffffffffffffffffffffffffffffffffffff1685876040518082805190602001908083835b60208310613d7c5780518252602082019150602081019050602083039250613d59565b6001836020036101000a03801982511681845116808217855250505050505090500191505060006040518083038185875af1925050503d8060008114613dde576040519150601f19603f3d011682016040523d82523d6000602084013e613de3565b606091505b5091509150613df3828286613dff565b92505050949350505050565b60608315613e0f57829050613ec4565b600083511115613e225782518084602001fd5b816040517f08c379a00000000000000000000000000000000000000000000000000000000081526004018080602001828103825283818151815260200191508051906020019080838360005b83811015613e89578082015181840152602081019050613e6e565b50505050905090810190601f168015613eb65780820380516001836020036101000a031916815260200191505b509250505060405180910390fd5b9392505050565b828054600181600116156101000203166002900490600052602060002090601f016020900481019282613f015760008555613f48565b82601f10613f1a57805160ff1916838001178555613f48565b82800160010185558215613f48579182015b82811115613f47578251825591602001919060010190613f2c565b5b509050613f559190613f59565b5090565b5b80821115613f72576000816000905550600101613f5a565b5090565b6000613f89613f848461469b565b61466a565b905082815260208101848484011115613fa157600080fd5b613fac8482856147a8565b509392505050565b6000613fc7613fc2846146cb565b61466a565b905082815260208101848484011115613fdf57600080fd5b613fea8482856147a8565b509392505050565b600081359050614001816147fd565b92915050565b60008083601f84011261401957600080fd5b8235905067ffffffffffffffff81111561403257600080fd5b60208301915083602082028301111561404a57600080fd5b9250929050565b60008135905061406081614814565b92915050565b6000813590506140758161482b565b92915050565b600082601f83011261408c57600080fd5b813561409c848260208601613f76565b91505092915050565b600082601f8301126140b657600080fd5b81356140c6848260208601613fb4565b91505092915050565b6000813590506140de81614842565b92915050565b6000602082840312156140f657600080fd5b600061410484828501613ff2565b91505092915050565b6000806040838503121561412057600080fd5b600061412e85828601613ff2565b925050602061413f85828601613ff2565b9150509250929050565b60008060006060848603121561415e57600080fd5b600061416c86828701613ff2565b935050602061417d86828701613ff2565b925050604061418e868287016140cf565b9150509250925092565b600080600080608085870312156141ae57600080fd5b60006141bc87828801613ff2565b94505060206141cd87828801613ff2565b93505060406141de878288016140cf565b925050606085013567ffffffffffffffff8111156141fb57600080fd5b6142078782880161407b565b91505092959194509250565b6000806040838503121561422657600080fd5b600061423485828601613ff2565b925050602061424585828601614051565b9150509250929050565b6000806040838503121561426257600080fd5b600061427085828601613ff2565b9250506020614281858286016140cf565b9150509250929050565b60006020828403121561429d57600080fd5b60006142ab84828501614066565b91505092915050565b6000602082840312156142c657600080fd5b600082013567ffffffffffffffff8111156142e057600080fd5b6142ec848285016140a5565b91505092915050565b60008060008060006080868803121561430d57600080fd5b600086013567ffffffffffffffff81111561432757600080fd5b614333888289016140a5565b955050602086013567ffffffffffffffff81111561435057600080fd5b61435c888289016140a5565b945050604061436d888289016140cf565b935050606086013567ffffffffffffffff81111561438a57600080fd5b61439688828901614007565b92509250509295509295909350565b6000602082840312156143b757600080fd5b60006143c5848285016140cf565b91505092915050565b600080604083850312156143e157600080fd5b60006143ef858286016140cf565b9250506020614400858286016140cf565b9150509250929050565b61441381614734565b82525050565b61442281614722565b82525050565b61443181614746565b82525050565b60006144438385614717565b93506144508385846147a8565b82840190509392505050565b6000614467826146fb565b6144718185614706565b93506144818185602086016147b7565b61448a816147ec565b840191505092915050565b60006144a0826146fb565b6144aa8185614717565b93506144ba8185602086016147b7565b80840191505092915050565b6144cf8161479e565b82525050565b60006144e2828486614437565b91508190509392505050565b60006144fa8284614495565b915081905092915050565b600060208201905061451a6000830184614419565b92915050565b60006020820190506145356000830184614428565b92915050565b60006020820190508181036000830152614555818461445c565b905092915050565b600060208201905061457260008301846144c6565b92915050565b60006101208201905061458e600083018c6144c6565b81810360208301526145a0818b61445c565b905081810360408301526145b4818a61445c565b90506145c3606083018961440a565b6145d0608083018861440a565b6145dd60a083018761440a565b6145ea60c08301866144c6565b6145f760e08301856144c6565b614605610100830184614428565b9a9950505050505050505050565b6000808335600160200384360303811261462c57600080fd5b80840192508235915067ffffffffffffffff82111561464a57600080fd5b60208301925060018202360383131561466257600080fd5b509250929050565b6000604051905081810181811067ffffffffffffffff82111715614691576146906147ea565b5b8060405250919050565b600067ffffffffffffffff8211156146b6576146b56147ea565b5b601f19601f8301169050602081019050919050565b600067ffffffffffffffff8211156146e6576146e56147ea565b5b601f19601f8301169050602081019050919050565b600081519050919050565b600082825260208201905092915050565b600081905092915050565b600061472d8261477e565b9050919050565b600061473f8261477e565b9050919050565b60008115159050919050565b60007fffffffff0000000000000000000000000000000000000000000000000000000082169050919050565b600073ffffffffffffffffffffffffffffffffffffffff82169050919050565b6000819050919050565b82818337600083830152505050565b60005b838110156147d55780820151818401526020810190506147ba565b838111156147e4576000848401525b50505050565bfe5b6000601f19601f8301169050919050565b61480681614722565b811461481157600080fd5b50565b61481d81614746565b811461482857600080fd5b50565b61483481614752565b811461483f57600080fd5b50565b61484b8161479e565b811461485657600080fd5b5056fe456e756d657261626c655365743a20696e646578206f7574206f6620626f756e64734552433732313a207472616e7366657220746f206e6f6e20455243373231526563656976657220696d706c656d656e7465724552433732313a207472616e7366657220746f20746865207a65726f2061646472657373416464726573733a20696e73756666696369656e742062616c616e636520666f722063616c6c4552433732313a206f70657261746f7220717565727920666f72206e6f6e6578697374656e7420746f6b656e4552433732313a20617070726f76652063616c6c6572206973206e6f74206f776e6572206e6f7220617070726f76656420666f7220616c6c4552433732313a2062616c616e636520717565727920666f7220746865207a65726f20616464726573734552433732313a206f776e657220717565727920666f72206e6f6e6578697374656e7420746f6b656e456e756d657261626c654d61703a20696e646578206f7574206f6620626f756e64734552433732313a20617070726f76656420717565727920666f72206e6f6e6578697374656e7420746f6b656e4552433732314d657461646174613a2055524920736574206f66206e6f6e6578697374656e7420746f6b656e4552433732313a207472616e73666572206f6620746f6b656e2074686174206973206e6f74206f776e4552433732314d657461646174613a2055524920717565727920666f72206e6f6e6578697374656e7420746f6b656e4552433732313a20617070726f76616c20746f2063757272656e74206f776e65724552433732313a207472616e736665722063616c6c6572206973206e6f74206f776e6572206e6f7220617070726f766564a2646970667358221220a0f11550a1bc7c000efb334f62bf0ba04ae374f690328f92880b928666da1ef364736f6c63430007060033",
  "immutableReferences": {},
  "source": "// SPDX-License-Identifier: MIT\r\npragma solidity >=0.4.21 <0.8.0;\r\npragma abicoder v2;\r\n\r\nimport \"./ERC721.sol\";\r\n\r\ncontract CryptoClans is ERC721 {\r\n\r\n  string public collectionName;\r\n  string public collectionNameSymbol;\r\n  uint256 public cryptoClanCounter;\r\n\r\n  struct CryptoClan {\r\n    uint256 tokenId;\r\n    string tokenName;\r\n    string tokenURI;\r\n    address payable mintedBy;\r\n    address payable currentOwner;\r\n    address payable previousOwner;\r\n    uint256 price;\r\n    uint256 numberOfTransfers;\r\n    bool forSale;\r\n  }\r\n\r\n  mapping(uint256 => CryptoClan) public allCryptoClans;\r\n  mapping(string => bool) public tokenNameExists;\r\n  mapping(string => bool) public colorExists;\r\n  mapping(string => bool) public tokenURIExists;\r\n\r\n  constructor() ERC721(\"Crypto Clans Collection\", \"CC\") {\r\n    collectionName = name();\r\n    collectionNameSymbol = symbol();\r\n  }\r\n\r\n  function mintCryptoClan(string memory _name, string memory _tokenURI, uint256 _price, string[] calldata _colors) external {\r\n    require(msg.sender != address(0));\r\n    cryptoClanCounter ++;\r\n    require(!_exists(cryptoClanCounter));\r\n\r\n    for(uint i=0; i<_colors.length; i++) {\r\n      require(!colorExists[_colors[i]]);\r\n    }\r\n    require(!tokenURIExists[_tokenURI]);\r\n    require(!tokenNameExists[_name]);\r\n\r\n    _mint(msg.sender, cryptoClanCounter);\r\n    _setTokenURI(cryptoClanCounter, _tokenURI);\r\n\r\n    for (uint i=0; i<_colors.length; i++) {\r\n      colorExists[_colors[i]] = true;\r\n    }\r\n    tokenURIExists[_tokenURI] = true;\r\n    tokenNameExists[_name] = true;\r\n\r\n    CryptoClan memory newCryptoClan = CryptoClan(\r\n      cryptoClanCounter,\r\n      _name,\r\n      _tokenURI,\r\n      msg.sender,\r\n      msg.sender,\r\n      address(0),\r\n      _price,\r\n      0,\r\n      true\r\n    );\r\n    allCryptoClans[cryptoClanCounter] = newCryptoClan;\r\n  }\r\n\r\n  function getTokenOwner(uint256 _tokenId) public view returns(address) {\r\n    return ownerOf(_tokenId);\r\n  }\r\n\r\n  function getTokenMetaData(uint _tokenId) public view returns(string memory) {\r\n    return tokenURI(_tokenId);\r\n  }\r\n\r\n  function getNumberOfTokensMinted() public view returns(uint256) {\r\n    return totalSupply();\r\n  }\r\n\r\n  function getTotalNumberOfTokensOwnedByAnAddress(address _owner) public view returns(uint256) {\r\n    return balanceOf(_owner);\r\n  }\r\n\r\n  function getTokenExists(uint256 _tokenId) public view returns(bool) {\r\n    return _exists(_tokenId);\r\n  }\r\n\r\n  function buyToken(uint256 _tokenId) public payable {\r\n    require(msg.sender != address(0));\r\n    require(_exists(_tokenId));\r\n    address tokenOwner = ownerOf(_tokenId);\r\n    require(tokenOwner != address(0));\r\n    require(tokenOwner != msg.sender);\r\n    CryptoClan memory cryptoClan = allCryptoClans[_tokenId];\r\n    require(msg.value >= cryptoClan.price);\r\n    require(cryptoClan.forSale);\r\n    _transfer(tokenOwner, msg.sender, _tokenId);\r\n    address payable sendTo = cryptoClan.currentOwner;\r\n    sendTo.transfer(msg.value);\r\n    cryptoClan.previousOwner = cryptoClan.currentOwner;\r\n    cryptoClan.currentOwner = msg.sender;\r\n    cryptoClan.numberOfTransfers += 1;\r\n    allCryptoClans[_tokenId] = cryptoClan;\r\n  }\r\n\r\n  function changeTokenPrice(uint256 _tokenId, uint256 _newPrice) public {\r\n    require(msg.sender != address(0));\r\n    require(_exists(_tokenId));\r\n    address tokenOwner = ownerOf(_tokenId);\r\n    require(tokenOwner == msg.sender);\r\n    CryptoClan memory cryptoClan = allCryptoClans[_tokenId];\r\n    cryptoClan.price = _newPrice;\r\n    allCryptoClans[_tokenId] = cryptoClan;\r\n  }\r\n\r\n  function toggleForSale(uint256 _tokenId) public {\r\n    require(msg.sender != address(0));\r\n    require(_exists(_tokenId));\r\n    address tokenOwner = ownerOf(_tokenId);\r\n    require(tokenOwner == msg.sender);\r\n    CryptoClan memory cryptoClan = allCryptoClans[_tokenId];\r\n    cryptoClan.forSale = !cryptoClan.forSale;\r\n    allCryptoClans[_tokenId] = cryptoClan;\r\n  }\r\n}\r\n",
  "sourcePath": "C:\\Users\\krish\\OneDrive\\Documents\\CSE598\\src\\contracts\\CryptoClans.sol",
  "compiler": {
    "name": "solc",
    "version": "0.7.6+commit.7338295f.Emscripten.clang"
  },
  "schemaVersion": "3.4.16",
  "updatedAt": "2023-11-27T05:14:59.511Z",
  "networkType": "ethereum",
  "devdoc": {
    "kind": "dev",
    "methods": {
      "approve(address,uint256)": {
        "details": "See {IERC721-approve}."
      },
      "balanceOf(address)": {
        "details": "See {IERC721-balanceOf}."
      },
      "baseURI()": {
        "details": "Returns the base URI set via {_setBaseURI}. This will be automatically added as a prefix in {tokenURI} to each token's URI, or to the token ID if no specific URI is set for that token ID."
      },
      "getApproved(uint256)": {
        "details": "See {IERC721-getApproved}."
      },
      "isApprovedForAll(address,address)": {
        "details": "See {IERC721-isApprovedForAll}."
      },
      "name()": {
        "details": "See {IERC721Metadata-name}."
      },
      "ownerOf(uint256)": {
        "details": "See {IERC721-ownerOf}."
      },
      "safeTransferFrom(address,address,uint256)": {
        "details": "See {IERC721-safeTransferFrom}."
      },
      "safeTransferFrom(address,address,uint256,bytes)": {
        "details": "See {IERC721-safeTransferFrom}."
      },
      "setApprovalForAll(address,bool)": {
        "details": "See {IERC721-setApprovalForAll}."
      },
      "supportsInterface(bytes4)": {
        "details": "See {IERC165-supportsInterface}. Time complexity O(1), guaranteed to always use less than 30 000 gas."
      },
      "symbol()": {
        "details": "See {IERC721Metadata-symbol}."
      },
      "tokenByIndex(uint256)": {
        "details": "See {IERC721Enumerable-tokenByIndex}."
      },
      "tokenOfOwnerByIndex(address,uint256)": {
        "details": "See {IERC721Enumerable-tokenOfOwnerByIndex}."
      },
      "tokenURI(uint256)": {
        "details": "See {IERC721Metadata-tokenURI}."
      },
      "totalSupply()": {
        "details": "See {IERC721Enumerable-totalSupply}."
      },
      "transferFrom(address,address,uint256)": {
        "details": "See {IERC721-transferFrom}."
      }
    },
    "version": 1
  },
  "userdoc": {
    "kind": "user",
    "methods": {},
    "version": 1
  }
}